{
  "contractName": "MedicalList",
  "abi": [
    {
      "constant": true,
      "inputs": [],
      "name": "medicalcount",
      "outputs": [
        {
          "name": "",
          "type": "uint256"
        }
      ],
      "payable": false,
      "stateMutability": "view",
      "type": "function",
      "signature": "0xfd429658"
    },
    {
      "constant": true,
      "inputs": [
        {
          "name": "",
          "type": "uint256"
        }
      ],
      "name": "rec1",
      "outputs": [
        {
          "name": "customername",
          "type": "string"
        },
        {
          "name": "customeremail",
          "type": "string"
        },
        {
          "name": "doctorid",
          "type": "string"
        },
        {
          "name": "doctorname",
          "type": "string"
        },
        {
          "name": "doctoremail",
          "type": "string"
        },
        {
          "name": "recordhash",
          "type": "string"
        }
      ],
      "payable": false,
      "stateMutability": "view",
      "type": "function",
      "signature": "0xfeef66a1"
    },
    {
      "inputs": [],
      "payable": false,
      "stateMutability": "nonpayable",
      "type": "constructor",
      "signature": "constructor"
    },
    {
      "anonymous": false,
      "inputs": [
        {
          "indexed": false,
          "name": "customername",
          "type": "string"
        },
        {
          "indexed": false,
          "name": "customeremail",
          "type": "string"
        },
        {
          "indexed": false,
          "name": "doctorid",
          "type": "string"
        },
        {
          "indexed": false,
          "name": "doctorname",
          "type": "string"
        },
        {
          "indexed": false,
          "name": "doctoremail",
          "type": "string"
        },
        {
          "indexed": false,
          "name": "recordhash",
          "type": "string"
        }
      ],
      "name": "RecordAdded",
      "type": "event",
      "signature": "0xf188d6b210347d39546ae7ee8c77db290a81e917680f2b9b2f06bc6737e4c7fd"
    },
    {
      "constant": false,
      "inputs": [
        {
          "name": "customername",
          "type": "string"
        },
        {
          "name": "customeremail",
          "type": "string"
        },
        {
          "name": "doctorid",
          "type": "string"
        },
        {
          "name": "doctorname",
          "type": "string"
        },
        {
          "name": "doctoremail",
          "type": "string"
        },
        {
          "name": "recordhash",
          "type": "string"
        }
      ],
      "name": "createRecord",
      "outputs": [],
      "payable": false,
      "stateMutability": "nonpayable",
      "type": "function",
      "signature": "0xd7552559"
    }
  ],
  "bytecode": "0x608060405234801561001057600080fd5b5060008081905550610f7b806100276000396000f3fe608060405260043610610057576000357c0100000000000000000000000000000000000000000000000000000000900463ffffffff168063d75525591461005c578063fd42965814610417578063feef66a114610442575b600080fd5b34801561006857600080fd5b50610415600480360360c081101561007f57600080fd5b810190808035906020019064010000000081111561009c57600080fd5b8201836020820111156100ae57600080fd5b803590602001918460018302840111640100000000831117156100d057600080fd5b91908080601f016020809104026020016040519081016040528093929190818152602001838380828437600081840152601f19601f8201169050808301925050505050505091929192908035906020019064010000000081111561013357600080fd5b82018360208201111561014557600080fd5b8035906020019184600183028401116401000000008311171561016757600080fd5b91908080601f016020809104026020016040519081016040528093929190818152602001838380828437600081840152601f19601f820116905080830192505050505050509192919290803590602001906401000000008111156101ca57600080fd5b8201836020820111156101dc57600080fd5b803590602001918460018302840111640100000000831117156101fe57600080fd5b91908080601f016020809104026020016040519081016040528093929190818152602001838380828437600081840152601f19601f8201169050808301925050505050505091929192908035906020019064010000000081111561026157600080fd5b82018360208201111561027357600080fd5b8035906020019184600183028401116401000000008311171561029557600080fd5b91908080601f016020809104026020016040519081016040528093929190818152602001838380828437600081840152601f19601f820116905080830192505050505050509192919290803590602001906401000000008111156102f857600080fd5b82018360208201111561030a57600080fd5b8035906020019184600183028401116401000000008311171561032c57600080fd5b91908080601f016020809104026020016040519081016040528093929190818152602001838380828437600081840152601f19601f8201169050808301925050505050505091929192908035906020019064010000000081111561038f57600080fd5b8201836020820111156103a157600080fd5b803590602001918460018302840111640100000000831117156103c357600080fd5b91908080601f016020809104026020016040519081016040528093929190818152602001838380828437600081840152601f19601f820116905080830192505050505050509192919290505050610712565b005b34801561042357600080fd5b5061042c610ad8565b6040518082815260200191505060405180910390f35b34801561044e57600080fd5b5061047b6004803603602081101561046557600080fd5b8101908080359060200190929190505050610ade565b6040518080602001806020018060200180602001806020018060200187810387528d818151815260200191508051906020019080838360005b838110156104cf5780820151818401526020810190506104b4565b50505050905090810190601f1680156104fc5780820380516001836020036101000a031916815260200191505b5087810386528c818151815260200191508051906020019080838360005b8381101561053557808201518184015260208101905061051a565b50505050905090810190601f1680156105625780820380516001836020036101000a031916815260200191505b5087810385528b818151815260200191508051906020019080838360005b8381101561059b578082015181840152602081019050610580565b50505050905090810190601f1680156105c85780820380516001836020036101000a031916815260200191505b5087810384528a818151815260200191508051906020019080838360005b838110156106015780820151818401526020810190506105e6565b50505050905090810190601f16801561062e5780820380516001836020036101000a031916815260200191505b50878103835289818151815260200191508051906020019080838360005b8381101561066757808201518184015260208101905061064c565b50505050905090810190601f1680156106945780820380516001836020036101000a031916815260200191505b50878103825288818151815260200191508051906020019080838360005b838110156106cd5780820151818401526020810190506106b2565b50505050905090810190601f1680156106fa5780820380516001836020036101000a031916815260200191505b509c5050505050505050505050505060405180910390f35b60c0604051908101604052808781526020018681526020018581526020018481526020018381526020018281525060016000806000815480929190600101919050558152602001908152602001600020600082015181600001908051906020019061077e929190610eaa565b50602082015181600101908051906020019061079b929190610eaa565b5060408201518160020190805190602001906107b8929190610eaa565b5060608201518160030190805190602001906107d5929190610eaa565b5060808201518160040190805190602001906107f2929190610eaa565b5060a082015181600501908051906020019061080f929190610eaa565b509050507ff188d6b210347d39546ae7ee8c77db290a81e917680f2b9b2f06bc6737e4c7fd8686868686866040518080602001806020018060200180602001806020018060200187810387528d818151815260200191508051906020019080838360005b8381101561088e578082015181840152602081019050610873565b50505050905090810190601f1680156108bb5780820380516001836020036101000a031916815260200191505b5087810386528c818151815260200191508051906020019080838360005b838110156108f45780820151818401526020810190506108d9565b50505050905090810190601f1680156109215780820380516001836020036101000a031916815260200191505b5087810385528b818151815260200191508051906020019080838360005b8381101561095a57808201518184015260208101905061093f565b50505050905090810190601f1680156109875780820380516001836020036101000a031916815260200191505b5087810384528a818151815260200191508051906020019080838360005b838110156109c05780820151818401526020810190506109a5565b50505050905090810190601f1680156109ed5780820380516001836020036101000a031916815260200191505b50878103835289818151815260200191508051906020019080838360005b83811015610a26578082015181840152602081019050610a0b565b50505050905090810190601f168015610a535780820380516001836020036101000a031916815260200191505b50878103825288818151815260200191508051906020019080838360005b83811015610a8c578082015181840152602081019050610a71565b50505050905090810190601f168015610ab95780820380516001836020036101000a031916815260200191505b509c5050505050505050505050505060405180910390a1505050505050565b60005481565b6001602052806000526040600020600091509050806000018054600181600116156101000203166002900480601f016020809104026020016040519081016040528092919081815260200182805460018160011615610100020316600290048015610b8a5780601f10610b5f57610100808354040283529160200191610b8a565b820191906000526020600020905b815481529060010190602001808311610b6d57829003601f168201915b505050505090806001018054600181600116156101000203166002900480601f016020809104026020016040519081016040528092919081815260200182805460018160011615610100020316600290048015610c285780601f10610bfd57610100808354040283529160200191610c28565b820191906000526020600020905b815481529060010190602001808311610c0b57829003601f168201915b505050505090806002018054600181600116156101000203166002900480601f016020809104026020016040519081016040528092919081815260200182805460018160011615610100020316600290048015610cc65780601f10610c9b57610100808354040283529160200191610cc6565b820191906000526020600020905b815481529060010190602001808311610ca957829003601f168201915b505050505090806003018054600181600116156101000203166002900480601f016020809104026020016040519081016040528092919081815260200182805460018160011615610100020316600290048015610d645780601f10610d3957610100808354040283529160200191610d64565b820191906000526020600020905b815481529060010190602001808311610d4757829003601f168201915b505050505090806004018054600181600116156101000203166002900480601f016020809104026020016040519081016040528092919081815260200182805460018160011615610100020316600290048015610e025780601f10610dd757610100808354040283529160200191610e02565b820191906000526020600020905b815481529060010190602001808311610de557829003601f168201915b505050505090806005018054600181600116156101000203166002900480601f016020809104026020016040519081016040528092919081815260200182805460018160011615610100020316600290048015610ea05780601f10610e7557610100808354040283529160200191610ea0565b820191906000526020600020905b815481529060010190602001808311610e8357829003601f168201915b5050505050905086565b828054600181600116156101000203166002900490600052602060002090601f016020900481019282601f10610eeb57805160ff1916838001178555610f19565b82800160010185558215610f19579182015b82811115610f18578251825591602001919060010190610efd565b5b509050610f269190610f2a565b5090565b610f4c91905b80821115610f48576000816000905550600101610f30565b5090565b9056fea165627a7a72305820bf27ea4ce69f82a0393453b99f98b96b0a0c506c6639f4128b1ca16fe781c90d0029",
  "source": "pragma solidity >=0.4.22 <9.0.0;\r\n\r\ncontract MedicalList{\r\n    uint public medicalcount;\r\n\r\n    struct Record{\r\n        string customername;\r\n        string customeremail;\r\n        string doctorid;\r\n        string doctorname;\r\n        string doctoremail;\r\n        string recordhash;\r\n    }\r\n\r\n    mapping(uint=>Record) public rec1;\r\n\r\n    event RecordAdded(string customername, string customeremail, string doctorid, string doctorname , string doctoremail, string recordhash);\r\n\r\n    constructor() public{\r\n        medicalcount = 0;\r\n    }\r\n\r\n    function createRecord(string memory customername, string memory customeremail, string memory doctorid, string memory doctorname , string memory doctoremail, string memory recordhash) public {\r\n        rec1[medicalcount++] = Record(customername,customeremail,doctorid,doctorname,doctoremail,recordhash);\r\n        emit RecordAdded(customername, customeremail, doctorid, doctorname, doctoremail, recordhash);\r\n    }\r\n\r\n}",
  "sourcePath": "C:/app_projects/medicalrecord/contracts/Medicallist.sol",
  "compiler": {
    "name": "solc",
    "version": "0.5.0+commit.1d4f565a.Emscripten.clang"
  },
  "schemaVersion": "3.0.1",
  "updatedAt": "2022-06-18T14:20:38.524Z",
  "devdoc": {
    "methods": {}
  },
  "userdoc": {
    "methods": {}
  }
}